{"abi":[{"type":"receive","stateMutability":"payable"},{"type":"function","name":"execute","inputs":[{"name":"to","type":"address","internalType":"address"},{"name":"value","type":"uint256","internalType":"uint256"},{"name":"data","type":"bytes","internalType":"bytes"},{"name":"operation","type":"uint8","internalType":"uint8"}],"outputs":[{"name":"result","type":"bytes","internalType":"bytes"}],"stateMutability":"payable"},{"type":"function","name":"isValidSignature","inputs":[{"name":"hash","type":"bytes32","internalType":"bytes32"},{"name":"signature","type":"bytes","internalType":"bytes"}],"outputs":[{"name":"magicValue","type":"bytes4","internalType":"bytes4"}],"stateMutability":"view"},{"type":"function","name":"isValidSigner","inputs":[{"name":"signer","type":"address","internalType":"address"},{"name":"","type":"bytes","internalType":"bytes"}],"outputs":[{"name":"","type":"bytes4","internalType":"bytes4"}],"stateMutability":"view"},{"type":"function","name":"lastExecutor","inputs":[{"name":"id","type":"uint256","internalType":"uint256"}],"outputs":[{"name":"","type":"address","internalType":"address"}],"stateMutability":"view"},{"type":"function","name":"onERC1155BatchReceived","inputs":[{"name":"","type":"address","internalType":"address"},{"name":"","type":"address","internalType":"address"},{"name":"","type":"uint256[]","internalType":"uint256[]"},{"name":"","type":"uint256[]","internalType":"uint256[]"},{"name":"","type":"bytes","internalType":"bytes"}],"outputs":[{"name":"","type":"bytes4","internalType":"bytes4"}],"stateMutability":"nonpayable"},{"type":"function","name":"onERC1155Received","inputs":[{"name":"","type":"address","internalType":"address"},{"name":"","type":"address","internalType":"address"},{"name":"","type":"uint256","internalType":"uint256"},{"name":"","type":"uint256","internalType":"uint256"},{"name":"","type":"bytes","internalType":"bytes"}],"outputs":[{"name":"","type":"bytes4","internalType":"bytes4"}],"stateMutability":"nonpayable"},{"type":"function","name":"state","inputs":[],"outputs":[{"name":"","type":"uint256","internalType":"uint256"}],"stateMutability":"view"},{"type":"function","name":"supportsInterface","inputs":[{"name":"interfaceId","type":"bytes4","internalType":"bytes4"}],"outputs":[{"name":"","type":"bool","internalType":"bool"}],"stateMutability":"view"},{"type":"function","name":"token","inputs":[],"outputs":[{"name":"","type":"uint256","internalType":"uint256"},{"name":"","type":"address","internalType":"address"},{"name":"","type":"uint256","internalType":"uint256"}],"stateMutability":"view"}],"bytecode":{"object":"0x608060405234801561001057600080fd5b50610fc7806100206000396000f3fe60806040526004361061008a5760003560e01c8063523e326011610059578063523e326014610172578063bc197c8114610192578063c19d93fb146101be578063f23a6e61146101e2578063fc0c546a1461020e57600080fd5b806301ffc9a7146100965780631626ba7e146100cb57806345a78dbc14610104578063519454471461015257600080fd5b3661009157005b600080fd5b3480156100a257600080fd5b506100b66100b1366004610a5f565b610246565b60405190151581526020015b60405180910390f35b3480156100d757600080fd5b506100eb6100e6366004610b40565b6102c2565b6040516001600160e01b031990911681526020016100c2565b34801561011057600080fd5b5061013a61011f366004610b87565b6000908152600160205260409020546001600160a01b031690565b6040516001600160a01b0390911681526020016100c2565b610165610160366004610bfe565b6104ad565b6040516100c29190610c78565b34801561017e57600080fd5b506100eb61018d366004610cc7565b61061d565b34801561019e57600080fd5b506100eb6101ad366004610d9c565b63bc197c8160e01b95945050505050565b3480156101ca57600080fd5b506101d460005481565b6040519081526020016100c2565b3480156101ee57600080fd5b506100eb6101fd366004610e4a565b63f23a6e6160e01b95945050505050565b34801561021a57600080fd5b50610223610664565b604080519384526001600160a01b039092166020840152908201526060016100c2565b60006001600160e01b03198216631169e36f60e21b148061027757506001600160e01b031982166301ffc9a760e01b145b8061029257506001600160e01b03198216636faff5f160e01b145b806102ad57506001600160e01b03198216635194544760e01b145b806102bc57506102bc826106b7565b92915050565b6000806102cf84846106ec565b90506001600160a01b0381166102e95750600090506102bc565b6000806102f4610664565b6040516301ffc9a760e01b8152636cdb3d1360e11b600482015291945092506001600160a01b03841691506301ffc9a790602401602060405180830381865afa158015610345573d6000803e3d6000fd5b505050506040513d601f19601f820116820180604052508101906103699190610eb3565b1561040d57604051627eeac760e11b81526001600160a01b038481166004830152602482018390526000919084169062fdd58e90604401602060405180830381865afa1580156103bd573d6000803e3d6000fd5b505050506040513d601f19601f820116820180604052508101906103e19190610ed5565b9050806001146103f95750600093506102bc92505050565b50630b135d3f60e11b93506102bc92505050565b6040516331a9108f60e11b8152600481018290526001600160a01b03831690636352211e90602401602060405180830381865afa158015610452573d6000803e3d6000fd5b505050506040513d601f19601f820116820180604052508101906104769190610eee565b6001600160a01b0316836001600160a01b03161461049b5750600092506102bc915050565b50630b135d3f60e11b95945050505050565b606060008060006104bc610664565b9250925092506104ce3384848461072d565b6105105760405162461bcd60e51b815260206004820152600e60248201526d24b73b30b634b21039b4b3b732b960911b60448201526064015b60405180910390fd5b60ff85161561056c5760405162461bcd60e51b815260206004820152602260248201527f4f6e6c792063616c6c206f7065726174696f6e732061726520737570706f7274604482015261195960f21b6064820152608401610507565b600080815461057a90610f0b565b919050819055506000896001600160a01b031689898960405161059e929190610f32565b60006040518083038185875af1925050503d80600081146105db576040519150601f19603f3d011682016040523d82523d6000602084013e6105e0565b606091505b5095509050806105f257845160208601fd5b50600090815260016020526040902080546001600160a01b0319163317905550909695505050505050565b60008060008061062b610664565b92509250925061063d8784848461072d565b156106555750630291f19360e51b925061065d915050565b506000925050505b9392505050565b60408051606080825260808201909252600091829182918291906020820181803683370190505090506060604d60208301303c808060200190518101906106ab9190610f42565b93509350935050909192565b60006001600160e01b03198216630271189760e51b14806102bc57506301ffc9a760e01b6001600160e01b03198316146102bc565b60008060006106fb85856108c2565b509092509050600081600381111561071557610715610f7b565b14610725576000925050506102bc565b509392505050565b600046841461073e575060006108ba565b6040516301ffc9a760e01b8152636cdb3d1360e11b60048201526001600160a01b038416906301ffc9a790602401602060405180830381865afa158015610789573d6000803e3d6000fd5b505050506040513d601f19601f820116820180604052508101906107ad9190610eb3565b1561083157604051627eeac760e11b81526001600160a01b038681166004830152602482018490526000919085169062fdd58e90604401602060405180830381865afa158015610801573d6000803e3d6000fd5b505050506040513d601f19601f820116820180604052508101906108259190610ed5565b60011491506108ba9050565b6040516331a9108f60e11b8152600481018390526000906001600160a01b03851690636352211e90602401602060405180830381865afa158015610879573d6000803e3d6000fd5b505050506040513d601f19601f8201168201806040525081019061089d9190610eee565b90506108a9868261090f565b6001600160a01b0386811691161490505b949350505050565b600080600083516041036108fc5760208401516040850151606086015160001a6108ee88828585610963565b955095509550505050610908565b50508151600091506002905b9250925092565b6040516001600160a01b0380841660248301528216604482015261095f9060640160408051601f198184030181529190526020810180516001600160e01b0316636d786a5560e11b179052610a32565b5050565b600080807f7fffffffffffffffffffffffffffffff5d576e7357a4501ddfe92f46681b20a084111561099e5750600091506003905082610a28565b604080516000808252602082018084528a905260ff891692820192909252606081018790526080810186905260019060a0016020604051602081039080840390855afa1580156109f2573d6000803e3d6000fd5b5050604051601f1901519150506001600160a01b038116610a1e57506000925060019150829050610a28565b9250600091508190505b9450945094915050565b610a3b81610a3e565b50565b80516a636f6e736f6c652e6c6f67602083016000808483855afa5050505050565b600060208284031215610a7157600080fd5b81356001600160e01b03198116811461065d57600080fd5b634e487b7160e01b600052604160045260246000fd5b604051601f8201601f1916810167ffffffffffffffff81118282101715610ac857610ac8610a89565b604052919050565b600082601f830112610ae157600080fd5b813567ffffffffffffffff811115610afb57610afb610a89565b610b0e601f8201601f1916602001610a9f565b818152846020838601011115610b2357600080fd5b816020850160208301376000918101602001919091529392505050565b60008060408385031215610b5357600080fd5b82359150602083013567ffffffffffffffff811115610b7157600080fd5b610b7d85828601610ad0565b9150509250929050565b600060208284031215610b9957600080fd5b5035919050565b6001600160a01b0381168114610a3b57600080fd5b60008083601f840112610bc757600080fd5b50813567ffffffffffffffff811115610bdf57600080fd5b602083019150836020828501011115610bf757600080fd5b9250929050565b600080600080600060808688031215610c1657600080fd5b8535610c2181610ba0565b945060208601359350604086013567ffffffffffffffff811115610c4457600080fd5b610c5088828901610bb5565b909450925050606086013560ff81168114610c6a57600080fd5b809150509295509295909350565b60006020808352835180602085015260005b81811015610ca657858101830151858201604001528201610c8a565b506000604082860101526040601f19601f8301168501019250505092915050565b600080600060408486031215610cdc57600080fd5b8335610ce781610ba0565b9250602084013567ffffffffffffffff811115610d0357600080fd5b610d0f86828701610bb5565b9497909650939450505050565b600082601f830112610d2d57600080fd5b8135602067ffffffffffffffff821115610d4957610d49610a89565b8160051b610d58828201610a9f565b9283528481018201928281019087851115610d7257600080fd5b83870192505b84831015610d9157823582529183019190830190610d78565b979650505050505050565b600080600080600060a08688031215610db457600080fd5b8535610dbf81610ba0565b94506020860135610dcf81610ba0565b9350604086013567ffffffffffffffff80821115610dec57600080fd5b610df889838a01610d1c565b94506060880135915080821115610e0e57600080fd5b610e1a89838a01610d1c565b93506080880135915080821115610e3057600080fd5b50610e3d88828901610ad0565b9150509295509295909350565b600080600080600060a08688031215610e6257600080fd5b8535610e6d81610ba0565b94506020860135610e7d81610ba0565b93506040860135925060608601359150608086013567ffffffffffffffff811115610ea757600080fd5b610e3d88828901610ad0565b600060208284031215610ec557600080fd5b8151801515811461065d57600080fd5b600060208284031215610ee757600080fd5b5051919050565b600060208284031215610f0057600080fd5b815161065d81610ba0565b600060018201610f2b57634e487b7160e01b600052601160045260246000fd5b5060010190565b8183823760009101908152919050565b600080600060608486031215610f5757600080fd5b835192506020840151610f6981610ba0565b80925050604084015190509250925092565b634e487b7160e01b600052602160045260246000fdfea2646970667358221220c3a3bd53c5cd35bddae0c231177be73fed51af467300a7631db4bcca1873316764736f6c63430008170033","linkReferences":{}},"methodIdentifiers":{"execute(address,uint256,bytes,uint8)":"51945447","isValidSignature(bytes32,bytes)":"1626ba7e","isValidSigner(address,bytes)":"523e3260","lastExecutor(uint256)":"45a78dbc","onERC1155BatchReceived(address,address,uint256[],uint256[],bytes)":"bc197c81","onERC1155Received(address,address,uint256,uint256,bytes)":"f23a6e61","state()":"c19d93fb","supportsInterface(bytes4)":"01ffc9a7","token()":"fc0c546a"},"id":44}