{"abi":[{"type":"constructor","inputs":[{"name":"allowedTokens_","type":"address[]","internalType":"address[]"},{"name":"allowedAccountImplementation_","type":"address","internalType":"address"}],"stateMutability":"nonpayable"},{"type":"function","name":"Pull","inputs":[],"outputs":[{"name":"","type":"bool","internalType":"bool"}],"stateMutability":"nonpayable"},{"type":"function","name":"aaTestAdd","inputs":[],"outputs":[{"name":"","type":"uint256","internalType":"uint256"}],"stateMutability":"nonpayable"},{"type":"function","name":"getCurrentMarker","inputs":[{"name":"gid","type":"uint256","internalType":"uint256"}],"outputs":[{"name":"","type":"uint256","internalType":"uint256"}],"stateMutability":"view"},{"type":"function","name":"getGame","inputs":[],"outputs":[{"name":"","type":"tuple","internalType":"struct Game","components":[{"name":"light","type":"tuple","internalType":"struct SideInit","components":[{"name":"side","type":"uint256","internalType":"uint256"},{"name":"joinSender","type":"address","internalType":"address"},{"name":"accImpl","type":"address","internalType":"address"},{"name":"token","type":"address","internalType":"address"},{"name":"tokenId","type":"uint256","internalType":"uint256"},{"name":"holders","type":"address[]","internalType":"address[]"}]},{"name":"dark","type":"tuple","internalType":"struct SideInit","components":[{"name":"side","type":"uint256","internalType":"uint256"},{"name":"joinSender","type":"address","internalType":"address"},{"name":"accImpl","type":"address","internalType":"address"},{"name":"token","type":"address","internalType":"address"},{"name":"tokenId","type":"uint256","internalType":"uint256"},{"name":"holders","type":"address[]","internalType":"address[]"}]},{"name":"firstBlock","type":"uint256","internalType":"uint256"},{"name":"marker","type":"uint256","internalType":"uint256"},{"name":"winnerId","type":"uint256","internalType":"uint256"},{"name":"winningSide","type":"uint256","internalType":"uint256"},{"name":"victoryBlock","type":"uint256","internalType":"uint256"}]}],"stateMutability":"view"},{"type":"function","name":"getGame","inputs":[{"name":"gid","type":"uint256","internalType":"uint256"}],"outputs":[{"name":"","type":"tuple","internalType":"struct Game","components":[{"name":"light","type":"tuple","internalType":"struct SideInit","components":[{"name":"side","type":"uint256","internalType":"uint256"},{"name":"joinSender","type":"address","internalType":"address"},{"name":"accImpl","type":"address","internalType":"address"},{"name":"token","type":"address","internalType":"address"},{"name":"tokenId","type":"uint256","internalType":"uint256"},{"name":"holders","type":"address[]","internalType":"address[]"}]},{"name":"dark","type":"tuple","internalType":"struct SideInit","components":[{"name":"side","type":"uint256","internalType":"uint256"},{"name":"joinSender","type":"address","internalType":"address"},{"name":"accImpl","type":"address","internalType":"address"},{"name":"token","type":"address","internalType":"address"},{"name":"tokenId","type":"uint256","internalType":"uint256"},{"name":"holders","type":"address[]","internalType":"address[]"}]},{"name":"firstBlock","type":"uint256","internalType":"uint256"},{"name":"marker","type":"uint256","internalType":"uint256"},{"name":"winnerId","type":"uint256","internalType":"uint256"},{"name":"winningSide","type":"uint256","internalType":"uint256"},{"name":"victoryBlock","type":"uint256","internalType":"uint256"}]}],"stateMutability":"view"},{"type":"function","name":"getGameByAccount","inputs":[{"name":"account","type":"address","internalType":"address"}],"outputs":[{"name":"","type":"uint256","internalType":"uint256"},{"name":"","type":"uint256","internalType":"uint256"},{"name":"","type":"uint256","internalType":"uint256"},{"name":"","type":"uint256","internalType":"uint256"},{"name":"","type":"uint256","internalType":"uint256"},{"name":"","type":"uint256","internalType":"uint256"}],"stateMutability":"view"},{"type":"function","name":"getWin","inputs":[{"name":"gid","type":"uint256","internalType":"uint256"}],"outputs":[{"name":"","type":"uint256","internalType":"uint256"},{"name":"","type":"uint256","internalType":"uint256"},{"name":"","type":"uint256","internalType":"uint256"},{"name":"","type":"uint256","internalType":"uint256"},{"name":"","type":"uint256","internalType":"uint256"},{"name":"","type":"address","internalType":"address"}],"stateMutability":"view"},{"type":"function","name":"getWinner","inputs":[{"name":"gid","type":"uint256","internalType":"uint256"}],"outputs":[{"name":"","type":"uint256","internalType":"uint256"},{"name":"","type":"address","internalType":"address"}],"stateMutability":"view"},{"type":"function","name":"isGameRunning","inputs":[{"name":"gid","type":"uint256","internalType":"uint256"}],"outputs":[{"name":"","type":"bool","internalType":"bool"}],"stateMutability":"view"},{"type":"function","name":"joinSide","inputs":[{"name":"preferredOrZero","type":"uint256","internalType":"uint256"}],"outputs":[],"stateMutability":"nonpayable"},{"type":"function","name":"openGameId","inputs":[],"outputs":[{"name":"","type":"uint256","internalType":"uint256"}],"stateMutability":"view"},{"type":"function","name":"openGameSide","inputs":[{"name":"preferredOrZero","type":"uint256","internalType":"uint256"}],"outputs":[{"name":"","type":"uint256","internalType":"uint256"},{"name":"","type":"uint256","internalType":"uint256"}],"stateMutability":"view"},{"type":"event","name":"GameStarted","inputs":[{"name":"gid","type":"uint256","indexed":true,"internalType":"uint256"},{"name":"lightInit","type":"tuple","indexed":false,"internalType":"struct SideInit","components":[{"name":"side","type":"uint256","internalType":"uint256"},{"name":"joinSender","type":"address","internalType":"address"},{"name":"accImpl","type":"address","internalType":"address"},{"name":"token","type":"address","internalType":"address"},{"name":"tokenId","type":"uint256","internalType":"uint256"},{"name":"holders","type":"address[]","internalType":"address[]"}]},{"name":"darkInit","type":"tuple","indexed":false,"internalType":"struct SideInit","components":[{"name":"side","type":"uint256","internalType":"uint256"},{"name":"joinSender","type":"address","internalType":"address"},{"name":"accImpl","type":"address","internalType":"address"},{"name":"token","type":"address","internalType":"address"},{"name":"tokenId","type":"uint256","internalType":"uint256"},{"name":"holders","type":"address[]","internalType":"address[]"}]}],"anonymous":false},{"type":"event","name":"RopePosition","inputs":[{"name":"gid","type":"uint256","indexed":true,"internalType":"uint256"},{"name":"side","type":"uint256","indexed":true,"internalType":"uint256"},{"name":"holder","type":"address","indexed":true,"internalType":"address"},{"name":"position","type":"uint256","indexed":false,"internalType":"uint256"}],"anonymous":false},{"type":"event","name":"SideJoined","inputs":[{"name":"gid","type":"uint256","indexed":true,"internalType":"uint256"},{"name":"holder","type":"address","indexed":true,"internalType":"address"},{"name":"tokenId","type":"uint256","indexed":true,"internalType":"uint256"},{"name":"token","type":"address","indexed":false,"internalType":"address"}],"anonymous":false},{"type":"event","name":"Victory","inputs":[{"name":"gid","type":"uint256","indexed":true,"internalType":"uint256"},{"name":"tokenId","type":"uint256","indexed":true,"internalType":"uint256"},{"name":"holder","type":"address","indexed":true,"internalType":"address"},{"name":"side","type":"uint256","indexed":false,"internalType":"uint256"}],"anonymous":false},{"type":"error","name":"AccountNotActiveInGame","inputs":[{"name":"account","type":"address","internalType":"address"}]},{"type":"error","name":"GameNotStarted","inputs":[{"name":"gid","type":"uint256","internalType":"uint256"}]},{"type":"error","name":"GameOver","inputs":[{"name":"gid","type":"uint256","internalType":"uint256"}]},{"type":"error","name":"InvalidSide","inputs":[{"name":"side","type":"uint256","internalType":"uint256"}]},{"type":"error","name":"InvalidTBA","inputs":[{"name":"sender","type":"address","internalType":"address"}]},{"type":"error","name":"InvalidVictoryState","inputs":[{"name":"side","type":"uint256","internalType":"uint256"},{"name":"marker","type":"uint256","internalType":"uint256"}]},{"type":"error","name":"NotActiveInGame","inputs":[{"name":"tokenId","type":"uint256","internalType":"uint256"}]},{"type":"error","name":"NotInTheDark","inputs":[{"name":"gid","type":"uint256","internalType":"uint256"},{"name":"tokenId","type":"uint256","internalType":"uint256"}]},{"type":"error","name":"NotInTheLight","inputs":[{"name":"gid","type":"uint256","internalType":"uint256"},{"name":"tokenId","type":"uint256","internalType":"uint256"}]},{"type":"error","name":"OtherGameIncomplete","inputs":[]}],"bytecode":{"object":"0x60806040523480156200001157600080fd5b5060405162001fff38038062001fff833981016040819052620000349162000105565b60005b82518110156200009e576000838281518110620000585762000058620001eb565b60209081029190910181015182546001808201855560009485529290932090920180546001600160a01b0319166001600160a01b03909316929092179091550162000037565b50600180546001600160a01b0319166001600160a01b03929092169190911781556002805490910181556000525062000201565b634e487b7160e01b600052604160045260246000fd5b80516001600160a01b03811681146200010057600080fd5b919050565b600080604083850312156200011957600080fd5b82516001600160401b03808211156200013157600080fd5b818501915085601f8301126200014657600080fd5b81516020828211156200015d576200015d620000d2565b8160051b604051601f19603f83011681018181108682111715620001855762000185620000d2565b604052928352818301935084810182019289841115620001a457600080fd5b948201945b83861015620001cd57620001bd86620000e8565b85529482019493820193620001a9565b9650620001de9050878201620000e8565b9450505050509250929050565b634e487b7160e01b600052603260045260246000fd5b611dee80620002116000396000f3fe608060405234801561001057600080fd5b50600436106100b45760003560e01c806353639d781161007157806353639d781461018d5780635b9332f71461019557806380aff9f2146101bd5780639195fd3b146101d0578063a2f77bcc146101e5578063f68e71fd146101f857600080fd5b8063140a2e44146100b957806330daec49146100d45780634129b2c9146100ec578063412c0c2d1461011c578063440b27ac146101655780634494fd9f14610178575b600080fd5b6100c1610238565b6040519081526020015b60405180910390f35b6100dc610291565b60405190151581526020016100cb565b6100ff6100fa366004611aaf565b610388565b604080519283526001600160a01b039091166020830152016100cb565b61012f61012a366004611aaf565b610436565b60408051968752602087019590955293850192909252606084015260808301526001600160a01b031660a082015260c0016100cb565b6100dc610173366004611aaf565b610543565b610180610574565b6040516100cb9190611b5c565b6100c1610815565b6101a86101a3366004611aaf565b610837565b604080519283526020830191909152016100cb565b6100c16101cb366004611aaf565b610898565b6101e36101de366004611aaf565b6108c6565b005b6101806101f3366004611aaf565b610b4d565b61020b610206366004611bed565b610d26565b604080519687526020870195909552938501929092526060840152608083015260a082015260c0016100cb565b600280546000916102729161024f90600190611c20565b8154811061025f5761025f611c33565b9060005260206000209060110201610d83565b1561028b5760025461028690600190611c20565b905090565b50600090565b60008060008061029f610dc0565b9250925092506000600284815481106102ba576102ba611c33565b906000526020600020906011020190508281600001600401540361030d576102e481858585610e45565b156102f457600194505050505090565b600a81015460009081526003602052604081205561036f565b600a81015483900361034e5761032581858585610fd9565b1561033557600194505050505090565b600481015460009081526003602052604081205561036f565b60405163294b900960e11b8152600481018490526024015b60405180910390fd5b5050600090815260036020526040812081905592915050565b600080826000036103a5576002546103a290600190611c20565b92505b6000600284815481106103ba576103ba611c33565b9060005260206000209060110201905080600e01546000036103e25750600093849350915050565b60006103ed82611159565b600581018054919250869161040490600190611c20565b8154811061041457610414611c33565b60009182526020909120015490966001600160a01b0390911695509350505050565b600080600080600080866000036104595760025461045690600190611c20565b96505b60006002888154811061046e5761046e611c33565b9060005260206000209060110201905080600e01546000036104a5576000806000806000809650965096509650965096505061053a565b60006104b082611159565b9050600082600c015483601001546104c89190611c20565b6005830180549192506000916104e090600190611c20565b815481106104f0576104f0611c33565b60009182526020909120015460058401546001600160a01b0390911691508b90839061051e90600190611c20565b8560000154866004015485995099509950995099509950505050505b91939550919395565b600061056e6002838154811061055b5761055b611c33565b906000526020600020906011020161119f565b92915050565b61057c611a15565b610585336111ce565b506000336001600160a01b031663fc0c546a6040518163ffffffff1660e01b8152600401606060405180830381865afa1580156105c6573d6000803e3d6000fd5b505050506040513d601f19601f820116820180604052508101906105ea9190611c49565b925050508060000361061157604051630e2f1bb760e01b8152336004820152602401610366565b600081815260036020526040812054908190036106445760405163294b900960e11b815260048101839052602401610366565b6002818154811061065757610657611c33565b6000918252602091829020604080516101a0810182526011909302909101805460e0840190815260018201546001600160a01b03908116610100860152600283015481166101208601526003830154166101408501526004820154610160850152600582018054845181880281018801909552808552949592948694929386936101808701939092909183018282801561071a57602002820191906000526020600020905b81546001600160a01b031681526001909101906020018083116106fc575b5050509190925250505081526040805160c081018252600684018054825260078501546001600160a01b03908116602084810191909152600887015482168486015260098701549091166060840152600a8601546080840152600b86018054855181840281018401909652808652958201959394929360a0860193928301828280156107cf57602002820191906000526020600020905b81546001600160a01b031681526001909101906020018083116107b1575b5050505050815250508152602001600c8201548152602001600d8201548152602001600e8201548152602001600f82015481526020016010820154815250509250505090565b600060016004600082825461082a9190611c82565b9091555050600454919050565b6000806000610844610238565b90508060000361085a5750600093849350915050565b8061088e856002848154811061087257610872611c33565b906000526020600020906011020161121090919063ffffffff16565b9250925050915091565b6000600282815481106108ad576108ad611c33565b9060005260206000209060110201600d01549050919050565b6000806108d283610837565b91509150816000036108e15750815b811580156108ed575080155b156108f6575060025b60018114158015610908575060028114155b156109295760405163f865dce960e01b815260048101829052602401610366565b6000610934336111ce565b9050600080336001600160a01b031663fc0c546a6040518163ffffffff1660e01b8152600401606060405180830381865afa158015610977573d6000803e3d6000fd5b505050506040513d601f19601f8201168201806040525081019061099b9190611c49565b604051631169e36f60e21b81526004810182905291945092506000915033906345a78dbc90602401602060405180830381865afa1580156109e0573d6000803e3d6000fd5b505050506040513d601f19601f82011682018060405250810190610a049190611c95565b60008781526003602052604090205490915015610a3457604051633710e29560e01b815260040160405180910390fd5b85600003610a5a57600280546001908101808355600092909252610a5791611c20565b95505b600060028781548110610a6f57610a6f611c33565b600091825260209091206011909102019050610a8f81878787878761129b565b6000610a9b82886113b1565b60048101546000908152600360209081526040918290208b905590516001600160a01b0388168152919250859133918b917f30c9ceb3705f0ed82c5e3afdd36d71614a91daad4b79d9e753950932742a1ae2910160405180910390a4600d82015415610b4257877fdbd9e1f105836bd49b2a2cf9f8ab609ef11fec041ede4b8edc1a1e4b19e895d28360000184600601604051610b39929190611d4b565b60405180910390a25b505050505050505050565b610b55611a15565b60028281548110610b6857610b68611c33565b6000918252602091829020604080516101a0810182526011909302909101805460e0840190815260018201546001600160a01b039081166101008601526002830154811661012086015260038301541661014085015260048201546101608501526005820180548451818802810188019095528085529495929486949293869361018087019390929091830182828015610c2b57602002820191906000526020600020905b81546001600160a01b03168152600190910190602001808311610c0d575b5050509190925250505081526040805160c081018252600684018054825260078501546001600160a01b03908116602084810191909152600887015482168486015260098701549091166060840152600a8601546080840152600b86018054855181840281018401909652808652958201959394929360a086019392830182828015610ce057602002820191906000526020600020905b81546001600160a01b03168152600190910190602001808311610cc2575b5050505050815250508152602001600c8201548152602001600d8201548152602001600e8201548152602001600f82015481526020016010820154815250509050919050565b600080600080600080600080610d3b896113f0565b9150915081600003610d6357600080600080600080975097509750975097509750505061053a565b610d6d8282611492565b949e939d50919b50995097509095509350505050565b60018101546000906001600160a01b03161580610dab575060078201546001600160a01b0316155b15610db857506001919050565b506000919050565b6000806000806000610dd0611598565b604051631169e36f60e21b815260048101829052919350915060009033906345a78dbc90602401602060405180830381865afa158015610e14573d6000803e3d6000fd5b505050506040513d601f19601f82011682018060405250810190610e389190611c95565b9296919550919350915050565b60048401546000908314610e7657604051632f2ce07760e11b81526004810185905260248101849052604401610366565b60078501546001600160a01b0316610ea457604051632499eb6d60e11b815260048101859052602401610366565b600f85600d0154101580610ebd5750600585600d015411155b15610ede57604051633496ed1560e01b815260048101859052602401610366565b600185600d016000828254610ef39190611c82565b909155505060058501805460018082018355600092835260209283902090910180546001600160a01b0319166001600160a01b038616908117909155600d880154604051908152909287917f82858b1cb710de9e4875abfe0673386155993c3fa4f8062d3955bd7d8941908f910160405180910390a4600f85600d01541015610f7e57506001610fd1565b610f878561164b565b816001600160a01b031683857f49915211809ef856a0ae7ed24870f07d33de1a100c966bb00e0d0f327b34b4116001604051610fc591815260200190565b60405180910390a45060005b949350505050565b600a840154600090831461100a576040516354d3fd5b60e01b81526004810185905260248101849052604401610366565b60018501546001600160a01b031661103857604051632499eb6d60e11b815260048101859052602401610366565b600f85600d01541015806110515750600585600d015411155b1561107257604051633496ed1560e01b815260048101859052602401610366565b600185600d0160008282546110879190611c20565b9091555050600b8501805460018101825560009182526020918290200180546001600160a01b0319166001600160a01b038516908117909155600d870154604051908152909160029187917f82858b1cb710de9e4875abfe0673386155993c3fa4f8062d3955bd7d8941908f910160405180910390a4600585600d0154111561111257506001610fd1565b61111b8561164b565b816001600160a01b031683857f49915211809ef856a0ae7ed24870f07d33de1a100c966bb00e0d0f327b34b4116002604051610fc591815260200190565b6000600182600f01540361116b575090565b600282600f01540361117e575060060190565b81600f015460405163f865dce960e01b815260040161036691815260200190565b600081600d01546000141580156111bb5750600f82600d015414155b801561056e575050600d01546005141590565b60008060006111dc84611766565b915091508161120957604051631a9de02b60e01b81526001600160a01b0385166004820152602401610366565b9392505050565b60006001820361123c5760018301546001600160a01b03166112345750600161056e565b50600061056e565b6002820361125e5760078301546001600160a01b03166112345750600261056e565b60078301546001600160a01b03166112785750600261056e565b60018301546001600160a01b03166112925750600161056e565b50600092915050565b60006112a787876113b1565b60018101549091506001600160a01b0316156112fe5760405162461bcd60e51b81526020600482015260166024820152751cda5919481a5cc8185b1c9958591e481a9bda5b995960521b6044820152606401610366565b85815543600c88015560018082018054336001600160a01b03199182161790915560028301805482166001600160a01b03898116919091179091556003840180548316888316179055600484018690556005840180549384018155600090815260208120909301805490921690851617905561138361137c886117b9565b89906113b1565b60018101549091506001600160a01b031661139f5750506113a9565b5050600a600d8701555b505050505050565b6000600182036113c257508161056e565b600282036113d457506006820161056e565b60405163f865dce960e01b815260048101839052602401610366565b6000806000806113ff85611766565b50905080611414575060009485945092505050565b846001600160a01b031663fc0c546a6040518163ffffffff1660e01b8152600401606060405180830381865afa158015611452573d6000803e3d6000fd5b505050506040513d601f19601f820116820180604052508101906114769190611c49565b6000818152600360205260409020549890975095505050505050565b600080600080600080876000036114b5576002546114b290600190611c20565b97505b6000600289815481106114ca576114ca611c33565b906000526020600020906011020190506000888260000160040154036114f1575080611523565b600a820154899003611507575060068101611523565b60405163294b900960e11b8152600481018a9052602401610366565b6000826010015460001461154c5782600c015483601001546115459190611c20565b905061155e565b600c83015461155b9043611c20565b90505b60058201548b90829061157390600190611c20565b8454600490950154600d90960154929e919d509b509299509297509195509350505050565b6000806115a4336111ce565b506000336001600160a01b031663fc0c546a6040518163ffffffff1660e01b8152600401606060405180830381865afa1580156115e5573d6000803e3d6000fd5b505050506040513d601f19601f820116820180604052508101906116099190611c49565b60008181526003602052604081205491945090925082900390506116435760405163294b900960e11b815260048101839052602401610366565b939092509050565b6000336001600160a01b031663fc0c546a6040518163ffffffff1660e01b8152600401606060405180830381865afa15801561168b573d6000803e3d6000fd5b505050506040513d601f19601f820116820180604052508101906116af9190611c49565b9250600091506116c1905083836117d3565b805490915060011480156116da5750600f83600d015414155b15611708578054600d8401546040516347ce82d760e11b815260048101929092526024820152604401610366565b8054600214801561171e5750600583600d015414155b1561174c578054600d8401546040516347ce82d760e11b815260048101929092526024820152604401610366565b6004810154600e84015554600f8301555043601090910155565b60015460009081906117939084906001600160a01b03166f6551c19487814612e58fe06813775758611848565b6117a257506000928392509050565b50506001805490926001600160a01b039091169150565b6000600182036117cb57506002919050565b506001919050565b6000818360000160040154036117ea57508161056e565b600a83015482900361180057506006820161056e565b60405162461bcd60e51b815260206004820181905260248201527f746f6b656e20646f6573206e6f74206d617463682065697468657220736964656044820152606401610366565b6000836001600160a01b03163b60ad1461186457506000611209565b600061186f856118f7565b9050806001600160a01b03163b60000361188d576000915050611209565b836001600160a01b0316816001600160a01b0316146118b0576000915050611209565b6000806000806118bf89611909565b93509350935093506118d5878686868686611961565b6001600160a01b0316896001600160a01b031614955050505050509392505050565b60006014600a600c843c505060005190565b60408051608080825260a0820190925260009182918291829182916020820181803683370190505090506080602d60208301883c808060200190518101906119519190611d79565b9450945094509450509193509193565b6040805160b78082018490526001600160a01b038516609783015260778201869052605782018790526e5af43d82803e903d91602b57fd5bf3603783015260288201889052733d60ad80600a3d3981f3363d3d373d3d3d363d736014830152815260d7810190915280516020909101206000906119df86828a6119eb565b98975050505050505050565b6000604051836040820152846020820152828152600b8101905060ff815360559020949350505050565b6040518060e00160405280611a28611a5e565b8152602001611a35611a5e565b815260200160008152602001600081526020016000815260200160008152602001600081525090565b6040518060c001604052806000815260200160006001600160a01b0316815260200160006001600160a01b0316815260200160006001600160a01b0316815260200160008152602001606081525090565b600060208284031215611ac157600080fd5b5035919050565b600060c083018251845260208084015160018060a01b0380821660208801528060408701511660408801528060608701511660608801526080860151608088015260a0860151915060c060a088015283825180865260e089019150602084019550600093505b80841015611b5057855183168252948401946001939093019290840190611b2e565b50979650505050505050565b602081526000825160e06020840152611b79610100840182611ac8565b90506020840151601f19848303016040850152611b968282611ac8565b9150506040840151606084015260608401516080840152608084015160a084015260a084015160c084015260c084015160e08401528091505092915050565b6001600160a01b0381168114611bea57600080fd5b50565b600060208284031215611bff57600080fd5b813561120981611bd5565b634e487b7160e01b600052601160045260246000fd5b8181038181111561056e5761056e611c0a565b634e487b7160e01b600052603260045260246000fd5b600080600060608486031215611c5e57600080fd5b835192506020840151611c7081611bd5565b80925050604084015190509250925092565b8082018082111561056e5761056e611c0a565b600060208284031215611ca757600080fd5b815161120981611bd5565b600060c083018254845260018060a01b0360018160018601541660208160208901528360028801541660408901528360038801541660608901526004870154608089015260058701915060c060a089015284825480875260e08a0191508360005260206000209650600093505b80841015611d3e57865486168252958401959284019290820190611d1f565b5098975050505050505050565b604081526000611d5e6040830185611cb2565b8281036020840152611d708185611cb2565b95945050505050565b60008060008060808587031215611d8f57600080fd5b84519350602085015192506040850151611da881611bd5565b606095909501519396929550505056fea2646970667358221220f8555ca4f668b765a7841b4c17f87b8cb43bea992cd6bbdaf1df0af25e54bfce64736f6c63430008170033","linkReferences":{}},"methodIdentifiers":{"Pull()":"30daec49","aaTestAdd()":"53639d78","getCurrentMarker(uint256)":"80aff9f2","getGame()":"4494fd9f","getGame(uint256)":"a2f77bcc","getGameByAccount(address)":"f68e71fd","getWin(uint256)":"412c0c2d","getWinner(uint256)":"4129b2c9","isGameRunning(uint256)":"440b27ac","joinSide(uint256)":"9195fd3b","openGameId()":"140a2e44","openGameSide(uint256)":"5b9332f7"},"id":48}