{
  "abi": [
    {
      "type": "constructor",
      "inputs": [
        {
          "name": "allowedToken_",
          "type": "address",
          "internalType": "address"
        },
        {
          "name": "allowedAccountImplementation_",
          "type": "address",
          "internalType": "address"
        }
      ],
      "stateMutability": "nonpayable"
    },
    {
      "type": "function",
      "name": "Add",
      "inputs": [],
      "outputs": [],
      "stateMutability": "nonpayable"
    },
    {
      "type": "function",
      "name": "Sub",
      "inputs": [],
      "outputs": [],
      "stateMutability": "nonpayable"
    },
    {
      "type": "function",
      "name": "getCurrentRopePosition",
      "inputs": [],
      "outputs": [
        {
          "name": "",
          "type": "uint256",
          "internalType": "uint256"
        }
      ],
      "stateMutability": "view"
    },
    {
      "type": "function",
      "name": "getResult",
      "inputs": [
        {
          "name": "i",
          "type": "uint256",
          "internalType": "uint256"
        }
      ],
      "outputs": [
        {
          "name": "",
          "type": "tuple",
          "internalType": "struct GameResult",
          "components": [
            {
              "name": "winner",
              "type": "address",
              "internalType": "address"
            },
            {
              "name": "finalLightPlayer",
              "type": "address",
              "internalType": "address"
            },
            {
              "name": "finalDarkPlayer",
              "type": "address",
              "internalType": "address"
            }
          ]
        }
      ],
      "stateMutability": "view"
    },
    {
      "type": "function",
      "name": "isGameRunning",
      "inputs": [],
      "outputs": [
        {
          "name": "",
          "type": "bool",
          "internalType": "bool"
        }
      ],
      "stateMutability": "view"
    },
    {
      "type": "function",
      "name": "joinTheDark",
      "inputs": [],
      "outputs": [],
      "stateMutability": "nonpayable"
    },
    {
      "type": "function",
      "name": "joinTheLight",
      "inputs": [],
      "outputs": [],
      "stateMutability": "nonpayable"
    },
    {
      "type": "function",
      "name": "nextGame",
      "inputs": [],
      "outputs": [
        {
          "name": "",
          "type": "uint256",
          "internalType": "uint256"
        }
      ],
      "stateMutability": "view"
    }
  ],
  "bytecode": {
    "object": "0x608060405234801561001057600080fd5b506040516111df3803806111df83398101604081905261002f91610092565b600480546001600160a01b039384166001600160a01b031991821617909155600580549290931691161790556001600081815560068054909201825552600a6003556100c5565b80516001600160a01b038116811461008d57600080fd5b919050565b600080604083850312156100a557600080fd5b6100ae83610076565b91506100bc60208401610076565b90509250929050565b61110b806100d46000396000f3fe608060405234801561001057600080fd5b50600436106100885760003560e01c80639a4fa5901161005b5780639a4fa59014610100578063b87f328014610108578063b9df2d2214610110578063eb7ae8db1461012857600080fd5b8063281d62c41461008d57806367e06858146100a95780637c3dca30146100b3578063995e4339146100bb575b600080fd5b61009660005481565b6040519081526020015b60405180910390f35b6100b1610130565b005b600354610096565b6100ce6100c9366004610e7b565b610294565b6040805182516001600160a01b03908116825260208085015182169083015292820151909216908201526060016100a0565b6100b1610312565b6100b161046b565b6101186105bf565b60405190151581526020016100a0565b6100b16105e3565b60015460000361017c5760405162461bcd60e51b81526020600482015260126024820152711a9bda5b881d1a194819d85b5948199a5cdd60721b60448201526064015b60405180910390fd5b6002546000036101c05760405162461bcd60e51b815260206004820152600f60248201526e6d61746368206e6f7420726561647960881b6044820152606401610173565b6101cb600154610736565b6102175760405162461bcd60e51b815260206004820152601c60248201527f796f75206d75737420626520746865206c6967687420706c61796572000000006044820152606401610173565b600f60035410158061022c5750600560035411155b156102655760405162461bcd60e51b815260206004820152600960248201526833b0b6b29037bb32b960b91b6044820152606401610173565b6001600360008282546102789190610eaa565b9091555050600354600f111561028a57565b610292610821565b565b6040805160608101825260008082526020820181905291810191909152600682815481106102c4576102c4610ec3565b600091825260209182902060408051606081018252600390930290910180546001600160a01b0390811684526001820154811694840194909452600201549092169181019190915292915050565b6001541561035a5760405162461bcd60e51b815260206004820152601560248201527474686572652063616e206265206f6e6c79206f6e6560581b6044820152606401610173565b6005546103829033906001600160a01b03166f6551c19487814612e58fe06813775758610b3a565b61039e5760405162461bcd60e51b815260040161017390610ed9565b6000336001600160a01b031663fc0c546a6040518163ffffffff1660e01b8152600401606060405180830381865afa1580156103de573d6000803e3d6000fd5b505050506040513d601f19601f820116820180604052508101906104029190610f4b565b6001556004549092506001600160a01b0380841691161490506104375760405162461bcd60e51b815260040161017390610f84565b60025460015414801561044b575060025415155b156104685760405162461bcd60e51b815260040161017390610fc6565b50565b6002546000036104b25760405162461bcd60e51b81526020600482015260126024820152711a9bda5b881d1a194819d85b5948199a5cdd60721b6044820152606401610173565b6001546000036104f65760405162461bcd60e51b815260206004820152600f60248201526e6d61746368206e6f7420726561647960881b6044820152606401610173565b610501600254610736565b61054d5760405162461bcd60e51b815260206004820152601b60248201527f796f75206d75737420626520746865206461726b20706c6179657200000000006044820152606401610173565b600f6003541015806105625750600560035411155b1561059b5760405162461bcd60e51b815260206004820152600960248201526833b0b6b29037bb32b960b91b6044820152606401610173565b6001600360008282546105ae9190611017565b909155505060035460051461028a57565b6000600154600014806105d25750600254155b156105dd5750600090565b50600190565b6002541561062b5760405162461bcd60e51b815260206004820152601560248201527474686572652063616e206265206f6e6c79206f6e6560581b6044820152606401610173565b6005546106539033906001600160a01b03166f6551c19487814612e58fe06813775758610b3a565b61066f5760405162461bcd60e51b815260040161017390610ed9565b6000336001600160a01b031663fc0c546a6040518163ffffffff1660e01b8152600401606060405180830381865afa1580156106af573d6000803e3d6000fd5b505050506040513d601f19601f820116820180604052508101906106d39190610f4b565b6002556004549092506001600160a01b0380841691161490506107085760405162461bcd60e51b815260040161017390610f84565b60015460025414801561044b5750600154156104685760405162461bcd60e51b815260040161017390610fc6565b6005546000906107619033906001600160a01b03166f6551c19487814612e58fe06813775758610b3a565b61076d57506000919050565b600080336001600160a01b031663fc0c546a6040518163ffffffff1660e01b8152600401606060405180830381865afa1580156107ae573d6000803e3d6000fd5b505050506040513d601f19601f820116820180604052508101906107d29190610f4b565b60045491945092506001600160a01b0380851691161490506108065760405162461bcd60e51b815260040161017390610f84565b838114610817575060009392505050565b5060019392505050565b600080336001600160a01b031663fc0c546a6040518163ffffffff1660e01b8152600401606060405180830381865afa158015610862573d6000803e3d6000fd5b505050506040513d601f19601f820116820180604052508101906108869190610f4b565b60045491945092506001600160a01b0380851691161490506108ba5760405162461bcd60e51b815260040161017390610f84565b60015481141580156108ce57506002548114155b1561090c5760405162461bcd60e51b815260206004820152600e60248201526d34b73b30b634b2103bb4b73732b960911b6044820152606401610173565b600680546001810182556000919091526040516331a9108f60e11b8152600481018390526001600160a01b03841690636352211e90602401602060405180830381865afa158015610961573d6000803e3d6000fd5b505050506040513d601f19601f82011682018060405250810190610985919061102a565b6006828154811061099857610998610ec3565b6000918252602090912060039091020180546001600160a01b0319166001600160a01b039283161790556001546040516331a9108f60e11b8152600481019190915290841690636352211e90602401602060405180830381865afa158015610a04573d6000803e3d6000fd5b505050506040513d601f19601f82011682018060405250810190610a28919061102a565b60068281548110610a3b57610a3b610ec3565b6000918252602090912060039091020160010180546001600160a01b0319166001600160a01b039283161790556002546040516331a9108f60e11b8152600481019190915290841690636352211e90602401602060405180830381865afa158015610aaa573d6000803e3d6000fd5b505050506040513d601f19601f82011682018060405250810190610ace919061102a565b60068281548110610ae157610ae1610ec3565b600091825260208220600391820201600290810180546001600160a01b0319166001600160a01b039590951694909417909355600182815592829055600a905580548190610b30908490610eaa565b9091555050505050565b6000610b71604051806040016040528060148152602001730c6d0cac6d6d2dcce40c6dec8ca40d8cadccee8d60631b815250610ca5565b836001600160a01b03163b60ad14610b8b57506000610c9e565b6000610b9685610ce8565b9050610bd66040518060400160405280601c81526020017f636865636b696e6720696d706c656d656e746174696f6e2073697a6500000000815250610ca5565b806001600160a01b03163b600003610bf2576000915050610c9e565b610c306040518060400160405280602081526020017f636865636b696e6720657870656374656420696d706c656d656e746174696f6e815250610ca5565b610c3a8185610cfa565b836001600160a01b0316816001600160a01b031614610c5d576000915050610c9e565b600080600080610c6c89610d4e565b9350935093509350610c82878686868686610da6565b6001600160a01b0316896001600160a01b031614955050505050505b9392505050565b61046881604051602401610cb99190611047565b60408051601f198184030181529190526020810180516001600160e01b031663104c13eb60e21b179052610e30565b60006014600a600c843c505060005190565b6040516001600160a01b03808416602483015282166044820152610d4a9060640160408051601f198184030181529190526020810180516001600160e01b0316636d786a5560e11b179052610e30565b5050565b60408051608080825260a0820190925260009182918291829182916020820181803683370190505090506080602d60208301883c80806020019051810190610d969190611096565b9450945094509450509193509193565b6040805160b78082018490526001600160a01b038516609783015260778201869052605782018790526e5af43d82803e903d91602b57fd5bf3603783015260288201889052733d60ad80600a3d3981f3363d3d373d3d3d363d736014830152815260d781019091528051602090910120600090610e2486828a610e51565b98975050505050505050565b80516a636f6e736f6c652e6c6f67602083016000808483855afa5050505050565b6000604051836040820152846020820152828152600b8101905060ff815360559020949350505050565b600060208284031215610e8d57600080fd5b5035919050565b634e487b7160e01b600052601160045260246000fd5b80820180821115610ebd57610ebd610e94565b92915050565b634e487b7160e01b600052603260045260246000fd5b6020808252603e908201527f6d757374206265206120746f6b656e20626f756e64206163636f756e7420667260408201527f6f6d2074686520657870656374656420746f6b656e20636f6e74726163740000606082015260800190565b6001600160a01b038116811461046857600080fd5b600080600060608486031215610f6057600080fd5b835192506020840151610f7281610f36565b80925050604084015190509250925092565b60208082526022908201527f6163636f756e7420617373657420636c617373206973206e6f7420616c6c6f77604082015261195960f21b606082015260800190565b60208082526031908201527f706c61796572206163636f756e7473206d75737420626520626f756e6420746f60408201527020646966666572656e7420746f6b656e7360781b606082015260800190565b81810381811115610ebd57610ebd610e94565b60006020828403121561103c57600080fd5b8151610c9e81610f36565b60006020808352835180602085015260005b8181101561107557858101830151858201604001528201611059565b506000604082860101526040601f19601f8301168501019250505092915050565b600080600080608085870312156110ac57600080fd5b845193506020850151925060408501516110c581610f36565b606095909501519396929550505056fea2646970667358221220fc2161627c4b93bab5f322b0a5d64f93fa5fb45f8b76940e64ab930bb1e14cb864736f6c63430008160033",
    "linkReferences": {}
  },
  "methodIdentifiers": {
    "Add()": "67e06858",
    "Sub()": "b87f3280",
    "getCurrentRopePosition()": "7c3dca30",
    "getResult(uint256)": "995e4339",
    "isGameRunning()": "b9df2d22",
    "joinTheDark()": "eb7ae8db",
    "joinTheLight()": "9a4fa590",
    "nextGame()": "281d62c4"
  },
  "id": 41
}